{
  "contractName": "collect",
  "abi": [
    {
      "inputs": [],
      "stateMutability": "payable",
      "type": "constructor"
    },
    {
      "anonymous": false,
      "inputs": [
        {
          "indexed": false,
          "internalType": "uint256",
          "name": "id",
          "type": "uint256"
        }
      ],
      "name": "payedForProduct",
      "type": "event"
    },
    {
      "anonymous": false,
      "inputs": [
        {
          "indexed": false,
          "internalType": "uint256",
          "name": "id",
          "type": "uint256"
        }
      ],
      "name": "priceAccepted",
      "type": "event"
    },
    {
      "anonymous": false,
      "inputs": [
        {
          "indexed": false,
          "internalType": "uint256",
          "name": "id",
          "type": "uint256"
        },
        {
          "indexed": false,
          "internalType": "uint256",
          "name": "price",
          "type": "uint256"
        }
      ],
      "name": "priceSuggested",
      "type": "event"
    },
    {
      "anonymous": false,
      "inputs": [
        {
          "indexed": false,
          "internalType": "uint256",
          "name": "id",
          "type": "uint256"
        }
      ],
      "name": "proposalDeclined",
      "type": "event"
    },
    {
      "anonymous": false,
      "inputs": [
        {
          "indexed": false,
          "internalType": "string",
          "name": "name",
          "type": "string"
        },
        {
          "indexed": false,
          "internalType": "uint256",
          "name": "id",
          "type": "uint256"
        },
        {
          "indexed": false,
          "internalType": "string",
          "name": "link",
          "type": "string"
        }
      ],
      "name": "proposalReceived",
      "type": "event"
    },
    {
      "inputs": [],
      "name": "owner",
      "outputs": [
        {
          "internalType": "address",
          "name": "",
          "type": "address"
        }
      ],
      "stateMutability": "view",
      "type": "function"
    },
    {
      "inputs": [
        {
          "internalType": "uint256",
          "name": "",
          "type": "uint256"
        }
      ],
      "name": "providerImages",
      "outputs": [
        {
          "internalType": "string",
          "name": "link",
          "type": "string"
        },
        {
          "internalType": "uint256",
          "name": "image_size",
          "type": "uint256"
        },
        {
          "internalType": "uint256",
          "name": "price",
          "type": "uint256"
        },
        {
          "internalType": "uint16",
          "name": "image_width",
          "type": "uint16"
        },
        {
          "internalType": "uint16",
          "name": "image_height",
          "type": "uint16"
        }
      ],
      "stateMutability": "view",
      "type": "function"
    },
    {
      "inputs": [],
      "name": "seller",
      "outputs": [
        {
          "internalType": "address payable",
          "name": "providerAddr",
          "type": "address"
        },
        {
          "internalType": "string",
          "name": "name",
          "type": "string"
        }
      ],
      "stateMutability": "view",
      "type": "function"
    },
    {
      "inputs": [
        {
          "internalType": "string",
          "name": "_link",
          "type": "string"
        },
        {
          "internalType": "uint256",
          "name": "_id",
          "type": "uint256"
        },
        {
          "internalType": "uint256",
          "name": "_size",
          "type": "uint256"
        },
        {
          "internalType": "uint16",
          "name": "_width",
          "type": "uint16"
        },
        {
          "internalType": "uint16",
          "name": "_height",
          "type": "uint16"
        },
        {
          "internalType": "string",
          "name": "_name",
          "type": "string"
        }
      ],
      "name": "sendProposal",
      "outputs": [],
      "stateMutability": "nonpayable",
      "type": "function"
    },
    {
      "inputs": [
        {
          "internalType": "bool",
          "name": "_decision",
          "type": "bool"
        },
        {
          "internalType": "uint256",
          "name": "_id",
          "type": "uint256"
        },
        {
          "internalType": "uint256",
          "name": "_price",
          "type": "uint256"
        }
      ],
      "name": "assessProposal",
      "outputs": [],
      "stateMutability": "nonpayable",
      "type": "function"
    },
    {
      "inputs": [
        {
          "internalType": "bool",
          "name": "decision",
          "type": "bool"
        },
        {
          "internalType": "uint256",
          "name": "_id",
          "type": "uint256"
        }
      ],
      "name": "providerDecision",
      "outputs": [],
      "stateMutability": "nonpayable",
      "type": "function"
    },
    {
      "inputs": [
        {
          "internalType": "uint256",
          "name": "_id",
          "type": "uint256"
        }
      ],
      "name": "payForProduct",
      "outputs": [],
      "stateMutability": "payable",
      "type": "function"
    },
    {
      "inputs": [
        {
          "internalType": "uint256",
          "name": "_id",
          "type": "uint256"
        }
      ],
      "name": "getImageInfo",
      "outputs": [
        {
          "internalType": "string",
          "name": "",
          "type": "string"
        },
        {
          "internalType": "uint16",
          "name": "",
          "type": "uint16"
        },
        {
          "internalType": "uint16",
          "name": "",
          "type": "uint16"
        },
        {
          "internalType": "uint256",
          "name": "",
          "type": "uint256"
        },
        {
          "internalType": "uint256",
          "name": "",
          "type": "uint256"
        }
      ],
      "stateMutability": "view",
      "type": "function"
    },
    {
      "inputs": [
        {
          "internalType": "uint256",
          "name": "_id",
          "type": "uint256"
        }
      ],
      "name": "getPrice",
      "outputs": [
        {
          "internalType": "uint256",
          "name": "",
          "type": "uint256"
        }
      ],
      "stateMutability": "view",
      "type": "function"
    }
  ],
  "bytecode": "0x6080604052336000806101000a81548173ffffffffffffffffffffffffffffffffffffffff021916908373ffffffffffffffffffffffffffffffffffffffff1602179055506111da806100536000396000f3fe6080604052600436106100865760003560e01c80639ac91cae116100595780639ac91cae1461014c578063a3da155814610175578063c34b20a0146101b6578063d420aa27146101df578063e7572230146101fb57610086565b806308551a531461008b578063450e14ee146100b75780638da5cb5b146100e057806395f224051461010b575b600080fd5b34801561009757600080fd5b506100a0610238565b6040516100ae929190610c06565b60405180910390f35b3480156100c357600080fd5b506100de60048036038101906100d99190610cb8565b6102f2565b005b3480156100ec57600080fd5b506100f561034b565b6040516101029190610d2c565b60405180910390f35b34801561011757600080fd5b50610132600480360381019061012d9190610d47565b61036f565b604051610143959493929190610da0565b60405180910390f35b34801561015857600080fd5b50610173600480360381019061016e9190610dfa565b6104fc565b005b34801561018157600080fd5b5061019c60048036038101906101979190610d47565b610581565b6040516101ad959493929190610e3a565b60405180910390f35b3480156101c257600080fd5b506101dd60048036038101906101d89190610ff5565b61066b565b005b6101f960048036038101906101f49190610d47565b6108e7565b005b34801561020757600080fd5b50610222600480360381019061021d9190610d47565b61094b565b60405161022f91906110ba565b60405180910390f35b60018060000160009054906101000a900473ffffffffffffffffffffffffffffffffffffffff169080600101805461026f90611104565b80601f016020809104026020016040519081016040528092919081815260200182805461029b90611104565b80156102e85780601f106102bd576101008083540402835291602001916102e8565b820191906000526020600020905b8154815290600101906020018083116102cb57829003601f168201915b5050505050905082565b60011515831515141561030e57610309828261096b565b610346565b7f043e4be04655188a508d8b691ac5a09f4b3b75f822cc880a7f7765bcdf74465f8260405161033d91906110ba565b60405180910390a15b505050565b60008054906101000a900473ffffffffffffffffffffffffffffffffffffffff1681565b606060008060008060008054906101000a900473ffffffffffffffffffffffffffffffffffffffff1673ffffffffffffffffffffffffffffffffffffffff163373ffffffffffffffffffffffffffffffffffffffff16146103cf57600080fd5b600560008781526020019081526020016000206000016005600088815260200190815260200160002060030160009054906101000a900461ffff166005600089815260200190815260200160002060030160029054906101000a900461ffff16600560008a815260200190815260200160002060010154600560008b81526020019081526020016000206002015484805461046990611104565b80601f016020809104026020016040519081016040528092919081815260200182805461049590611104565b80156104e25780601f106104b7576101008083540402835291602001916104e2565b820191906000526020600020905b8154815290600101906020018083116104c557829003601f168201915b505050505094509450945094509450945091939590929450565b600115158215151415610545577f3eae28a4318e18f6457e8dbbb31a553849ebfebeace211b6d8c29aa4fdb08f238160405161053891906110ba565b60405180910390a161057d565b7f043e4be04655188a508d8b691ac5a09f4b3b75f822cc880a7f7765bcdf74465f8160405161057491906110ba565b60405180910390a15b5050565b6003818154811061059157600080fd5b90600052602060002090600402016000915090508060000180546105b490611104565b80601f01602080910402602001604051908101604052809291908181526020018280546105e090611104565b801561062d5780601f106106025761010080835404028352916020019161062d565b820191906000526020600020905b81548152906001019060200180831161061057829003601f168201915b5050505050908060010154908060020154908060030160009054906101000a900461ffff16908060030160029054906101000a900461ffff16905085565b60006040518060a00160405280888152602001868152602001600081526020018561ffff1681526020018461ffff16815250905060405180604001604052803373ffffffffffffffffffffffffffffffffffffffff16815260200183815250600160008201518160000160006101000a81548173ffffffffffffffffffffffffffffffffffffffff021916908373ffffffffffffffffffffffffffffffffffffffff160217905550602082015181600101908051906020019061072f929190610a89565b50905050600460003373ffffffffffffffffffffffffffffffffffffffff1673ffffffffffffffffffffffffffffffffffffffff16815260200190815260200160002081908060018154018082558091505060019003906000526020600020906004020160009091909190915060008201518160000190805190602001906107b8929190610a89565b50602082015181600101556040820151816002015560608201518160030160006101000a81548161ffff021916908361ffff16021790555060808201518160030160026101000a81548161ffff021916908361ffff160217905550505080600560008881526020019081526020016000206000820151816000019080519060200190610845929190610a89565b50602082015181600101556040820151816002015560608201518160030160006101000a81548161ffff021916908361ffff16021790555060808201518160030160026101000a81548161ffff021916908361ffff1602179055509050507f9b23b9eb7a9bfa37c16cb0b39683dbc685d04e127ef9f16d8c5c83344bbf1fe98287896040516108d693929190611136565b60405180910390a150505050505050565b6005600082815260200190815260200160002060020154341461090957600080fd5b610911610a1b565b7f9ae2afd7669a2d519551a4341b4a396e51a52dc46a3c15ca61f5acbb20de948b8160405161094091906110ba565b60405180910390a150565b600060056000838152602001908152602001600020600201549050919050565b60008054906101000a900473ffffffffffffffffffffffffffffffffffffffff1673ffffffffffffffffffffffffffffffffffffffff163373ffffffffffffffffffffffffffffffffffffffff16146109c357600080fd5b8060056000848152602001908152602001600020600201819055507fcb52226b49833082fb10204d722c2fac8bfda2529a90702aac492ac762a584b68282604051610a0f92919061117b565b60405180910390a15050565b600160000160009054906101000a900473ffffffffffffffffffffffffffffffffffffffff1673ffffffffffffffffffffffffffffffffffffffff166108fc479081150290604051600060405180830381858888f19350505050158015610a86573d6000803e3d6000fd5b50565b828054610a9590611104565b90600052602060002090601f016020900481019282610ab75760008555610afe565b82601f10610ad057805160ff1916838001178555610afe565b82800160010185558215610afe579182015b82811115610afd578251825591602001919060010190610ae2565b5b509050610b0b9190610b0f565b5090565b5b80821115610b28576000816000905550600101610b10565b5090565b600073ffffffffffffffffffffffffffffffffffffffff82169050919050565b6000610b5782610b2c565b9050919050565b610b6781610b4c565b82525050565b600081519050919050565b600082825260208201905092915050565b60005b83811015610ba7578082015181840152602081019050610b8c565b83811115610bb6576000848401525b50505050565b6000601f19601f8301169050919050565b6000610bd882610b6d565b610be28185610b78565b9350610bf2818560208601610b89565b610bfb81610bbc565b840191505092915050565b6000604082019050610c1b6000830185610b5e565b8181036020830152610c2d8184610bcd565b90509392505050565b6000604051905090565b600080fd5b600080fd5b60008115159050919050565b610c5f81610c4a565b8114610c6a57600080fd5b50565b600081359050610c7c81610c56565b92915050565b6000819050919050565b610c9581610c82565b8114610ca057600080fd5b50565b600081359050610cb281610c8c565b92915050565b600080600060608486031215610cd157610cd0610c40565b5b6000610cdf86828701610c6d565b9350506020610cf086828701610ca3565b9250506040610d0186828701610ca3565b9150509250925092565b6000610d1682610b2c565b9050919050565b610d2681610d0b565b82525050565b6000602082019050610d416000830184610d1d565b92915050565b600060208284031215610d5d57610d5c610c40565b5b6000610d6b84828501610ca3565b91505092915050565b600061ffff82169050919050565b610d8b81610d74565b82525050565b610d9a81610c82565b82525050565b600060a0820190508181036000830152610dba8188610bcd565b9050610dc96020830187610d82565b610dd66040830186610d82565b610de36060830185610d91565b610df06080830184610d91565b9695505050505050565b60008060408385031215610e1157610e10610c40565b5b6000610e1f85828601610c6d565b9250506020610e3085828601610ca3565b9150509250929050565b600060a0820190508181036000830152610e548188610bcd565b9050610e636020830187610d91565b610e706040830186610d91565b610e7d6060830185610d82565b610e8a6080830184610d82565b9695505050505050565b600080fd5b600080fd5b7f4e487b7100000000000000000000000000000000000000000000000000000000600052604160045260246000fd5b610ed682610bbc565b810181811067ffffffffffffffff82111715610ef557610ef4610e9e565b5b80604052505050565b6000610f08610c36565b9050610f148282610ecd565b919050565b600067ffffffffffffffff821115610f3457610f33610e9e565b5b610f3d82610bbc565b9050602081019050919050565b82818337600083830152505050565b6000610f6c610f6784610f19565b610efe565b905082815260208101848484011115610f8857610f87610e99565b5b610f93848285610f4a565b509392505050565b600082601f830112610fb057610faf610e94565b5b8135610fc0848260208601610f59565b91505092915050565b610fd281610d74565b8114610fdd57600080fd5b50565b600081359050610fef81610fc9565b92915050565b60008060008060008060c0878903121561101257611011610c40565b5b600087013567ffffffffffffffff8111156110305761102f610c45565b5b61103c89828a01610f9b565b965050602061104d89828a01610ca3565b955050604061105e89828a01610ca3565b945050606061106f89828a01610fe0565b935050608061108089828a01610fe0565b92505060a087013567ffffffffffffffff8111156110a1576110a0610c45565b5b6110ad89828a01610f9b565b9150509295509295509295565b60006020820190506110cf6000830184610d91565b92915050565b7f4e487b7100000000000000000000000000000000000000000000000000000000600052602260045260246000fd5b6000600282049050600182168061111c57607f821691505b602082108114156111305761112f6110d5565b5b50919050565b600060608201905081810360008301526111508186610bcd565b905061115f6020830185610d91565b81810360408301526111718184610bcd565b9050949350505050565b60006040820190506111906000830185610d91565b61119d6020830184610d91565b939250505056fea26469706673582212203e846966f4df025daac75b6f6cb19b7f18811697e876ab794a1da1d455752e7464736f6c634300080a0033",
  "immutableReferences": {},
  "source": "// SPDX-License-Identifier: GPL-3.0\r\n\r\npragma solidity >=0.7.0 <=0.9.0;\r\n\r\ncontract collect {\r\n    address public owner;\r\n    provider public seller;\r\n\r\n    struct provider {\r\n        address payable providerAddr;\r\n        string name;\r\n    }\r\n\r\n    struct image {\r\n        string link;\r\n        uint256 image_size;\r\n        uint256 price;\r\n        uint16 image_width;\r\n        uint16 image_height;\r\n        \r\n    }\r\n\r\n    image[] public providerImages;\r\n    mapping(address => image[]) provider_to_images;\r\n    mapping(uint256 => image) IdToImage;\r\n\r\n    event proposalReceived (string name, uint id, string link);\r\n    event priceSuggested (uint id, uint price);\r\n    event proposalDeclined (uint id);\r\n    event priceAccepted (uint id);\r\n    event payedForProduct (uint id);\r\n\r\n    constructor() payable {\r\n        owner = payable(msg.sender);\r\n    }\r\n\r\n    function sendProposal (string memory _link, uint256 _id, uint256 _size, uint16 _width, uint16 _height, string memory _name) public {\r\n        image memory new_image = image(_link, _size, 0, _width, _height);\r\n        seller = provider(payable(msg.sender), _name);\r\n        provider_to_images[msg.sender].push(new_image);\r\n        IdToImage[_id] = new_image;\r\n        emit proposalReceived(_name, _id, _link);\r\n    }\r\n\r\n    function assessProposal (bool _decision, uint256 _id, uint256 _price) public {\r\n        if(_decision == true){\r\n            suggestPrice(_id, _price);\r\n        }\r\n        else {\r\n            emit proposalDeclined(_id);\r\n        }\r\n    }\r\n\r\n    function suggestPrice (uint256 _id, uint256 _price) internal {\r\n        require(msg.sender == owner);\r\n        IdToImage[_id].price = _price;\r\n        emit priceSuggested(_id, _price);\r\n    }\r\n\r\n    function providerDecision(bool decision, uint _id) public {\r\n        if(decision == true)\r\n            emit priceAccepted(_id);\r\n        else emit proposalDeclined(_id);\r\n    }\r\n\r\n    function payForProduct(uint _id) external payable {\r\n        require(msg.value == IdToImage[_id].price);\r\n        withdraw();\r\n        emit payedForProduct(_id);\r\n    }\r\n\r\n    function withdraw() internal {\r\n        seller.providerAddr.transfer(address(this).balance);\r\n    }\r\n\r\n    function getImageInfo (uint256 _id) public view returns(string memory, uint16, uint16, uint256, uint256) {\r\n        require(msg.sender == owner);\r\n        return (\r\n            IdToImage[_id].link,\r\n            IdToImage[_id].image_width,\r\n            IdToImage[_id].image_height,\r\n            IdToImage[_id].image_size,\r\n            IdToImage[_id].price\r\n        );\r\n    }\r\n\r\n    function getPrice(uint _id) public view returns(uint) {\r\n        return IdToImage[_id].price;\r\n    }\r\n}",
  "sourcePath": "C:\\Users\\domas\\Documents\\VU\\3 semestras\\Blockchain\\3_uzd\\smart_contract\\contracts\\collection.sol",
  "compiler": {
    "name": "solc",
    "version": "0.8.10+commit.fc410830.Emscripten.clang"
  },
  "schemaVersion": "3.4.3",
  "updatedAt": "2022-01-17T18:00:07.677Z",
  "devdoc": {
    "kind": "dev",
    "methods": {},
    "version": 1
  },
  "userdoc": {
    "kind": "user",
    "methods": {},
    "version": 1
  }
}